:100000009BC0B3C0B2C0B1C0B0C0AFC0AEC0ADC085
:10001000ACC0ABC0AAC0A9C0A8C0A7C0A6C0000001
:1000200000000000000000000000000000000000D0
:1000300000000000000000000000000000000000C0
:1000400000000000000000000000000000000000B0
:1000500000000000040B121A21293139424B545D73
:1000600067717B85909BA7B2BECBD7E4F1FF0303FA
:10007000040507090B0E12161B20272F37404B577C
:1000800063718192A4B7CCE3FFFFFFFFFFFFFFFF87
:10009000FFFFFFFFFFFFFFFFFFFFFFFFFFFFFFFF70
:1000A000FFFFFFFFFFFFFFFFFFFFFFFFFFFFFFFF60
:1000B000FFFFFFFFFFFFFFFFFFFFFFFFFF0000004D
:1000C0000000000000000000000000000000000030
:1000D000000000000000000000060B10151B212787
:1000E0002E353C444C545D66707A85909CA8B4C112
:1000F000CFDDEBFFFFFFFFFFFFFFFFFFFFFFFFFF76
:10010000FFFFFFFFFFFFFFFFFFFFFFFFFF00744543
:1001100078467D47824886498B60906195629963F5
:100120009E64A365A866AC67B168B669BB80BF81F1
:10013000C482C983CD84FF2111241FBECFEDCDBF62
:1001400010E0A0E6B0E0EEEEF7E002C005900D9200
:10015000AA36B107D9F720E0AAE6B0E001C01D92A7
:10016000AF36B207E1F720D140C34ACF20ED37E0E8
:10017000019720F0F9013197F1F7FACF08958CEF4C
:1001800093E00197F1F7089520E43FE1815020F0DA
:10019000F9013197F1F7FACF08958AEFF5CF369A42
:1001A0003699FECF85B10895369A3699FECF349AA6
:1001B00084B195B1089583E5E7CF80916D008823E0
:1001C000F1F080916C006FEF90E001D380916C00B2
:1001D0008F5F80936C006FEF90E0F9D280916C009C
:1001E0008F5F8F7380936C006091720090E0EFD20C
:1001F00080916C0090E0609171000196E8C20895D2
:10020000DCDF60916D0081E490E0E1D260916900F3
:1002100082E490E0DCC20F931F93CF9381E490E0DF
:10022000CED2823018F480936D0002C010926D001F
:1002300082E490E0C4D29FEF980F953410F480933D
:10024000690010926C00C0916C00C034A0F40C2FB7
:1002500010E0C801B4D28F3F51F080936A00C8010A
:100260000196ADD28F3F39F08093680004C0CE5F15
:10027000C0936C00E8CFCF911F910F9108958093A8
:100280006E0091EA9ABD811104C018BC19BC1BBC58
:10029000089590E00197FC01E25EFF4F2491FC017C
:1002A000E259FF4F3491FC01E254FF4F849188BD25
:1002B00039BD2BBD0895CF93DF93C82FD62FCC2304
:1002C00061F084E1DCDF8D2F5FDF80E0D8DF8D2FF0
:1002D0005BDF8D2F59DFC150F2CFDF91CF910895B1
:1002E000EF92FF920F931F93CF93DF93D82FC0E22B
:1002F000E82EF12C062F10E080E5C1DFDD2319F098
:10030000C70134DF01C03BDF80E0B9DFC8012EDF69
:10031000C15091F7DF91CF911F910F91FF90EF9016
:1003200008951F93CF93DF938FE887B986EC86B942
:100330003BDF18E0C0E0D0E037DFC80FD91F81E015
:1003400023DF1150C9F7CE01969587958C549440C0
:10035000DF91CF911F91089580E091DF379885B7A5
:10036000877E806185BF85B7806285BF889585B7A8
:100370008F7D85BF08951F93CF93DF93EC01862F68
:100380006FE099DF8EE300DF888111E081278883A9
:1003900037DF63E080E28FDF88811827188330DF42
:1003A000DF91CF911F91F9CECF93DF93CDB7DD27AA
:1003B000C950CDBFB99AB89ABC9A11E013BF10BF0B
:1003C00080E68CBD0FEF0DBD198625DF809173008F
:1003D000811119C0809174008F5F8F7180937400B8
:1003E00080916F008F3F29F08093720000936F001F
:1003F0001AC0809172008F5F80937200883098F0ED
:100400001093720010C0109274001093710010933A
:10041000700000936F001092720080916D0088232D
:1004200011F08AEF898710927300C7DE312C4424C3
:10043000439411E0712CE12C612C5E0129E0A20EA5
:10044000B11C4E0188E0880E911C5524539422243F
:100450002A94F090720027E02F1528F0EF2DF0E09D
:10046000E05AFF4FF080A29A81EA87B926EC26B9BC
:10047000809174008031B0F090DE10927400509240
:10048000720020926F0061E08DE690E074DF88EFEB
:1004900080936F0062E0C5016EDF5092720020927F
:1004A0006F00D7CF89858A3F81F4198681E0E7DE26
:1004B00050926F0080DE80916A008093720080917C
:1004C00068008093710079DEC4CF2DEFF2124FC027
:1004D00080917100D4DE80917400813039F4809174
:1004E000720080936F002092700007C0823029F460
:1004F000809172008E5F80936F005DDE20926F00AE
:1005000080917400813011F4809370001092740017
:10051000809171008A3111F0853349F480E0AFDEBB
:1005200082E032DE80917100AADE45DE03C0A7DEE4
:1005300089E02ADE809170009091710018161CF4F9
:10054000903528F008C0882311F0923050F0890FC0
:1005500080937100DDCF813021F480E090DE82E075
:1005600013DE809170008195809370006BC08CEFDA
:10057000F8120DC0442039F08091710080DE809126
:10058000710080936B0017DE10926F005BC02EEF3E
:10059000F2120BC0442029F080E571DE80E58093E3
:1005A0006B0009DE50926F004DC080EFF81203C05F
:1005B0006FE481E005C02FEEF21204C069E280E032
:1005C0008FDE40C08EEEF81202C06FE0F8CF2BEF46
:1005D000F21225C0F0DDE3DD90E0292F30E0F901D3
:1005E000E25FFE4FE491E81710F49E5FF6CFF90149
:1005F000E15FFE4F049169E1802F829586958770B7
:100600005ADE83E5C1DD62E081E055DE86EABCDDCD
:1006100069E1802F8F714FDEC0DDBFDD13C08BEE2F
:10062000F81210C067E082E046DE0DE0802F27DE82
:100630005CE7D52EB2DDB1DDDA94D110FBCF0150ED
:10064000A9F78ADE10927400AADD823800F563945F
:1006500027E02615E8F48CEFF81631F0509272007E
:1006600024E1209371000BC080917100823030F042
:1006700080916E0086958093710001C06DDE80913F
:100680007100FDDD8091710080936B0086DD612C2F
:100690008EEFF81629F08F2D8B7F883F09F08CC0E4
:1006A00040DE6C01111103C0FE01319607C0FE014E
:1006B0003196C192EA15FB05E1F7F6CF818181936E
:1006C0008E169F06D9F7C88689818601081B1109F5
:1006D00028EFF21227C0442051F082E38093690092
:1006E00084E1CDDD8DDD59DD58DD80E5C8DD33E009
:1006F000000F111F3A95E1F70C0D1D1D159507957B
:1007000015950795073418F40093690003C026E493
:100710002093690083E0831510F472DD312C4BDDEA
:1007200010E04AC094E0000F111F9A95E1F7C00E47
:10073000D11E8091690090E0880F991F880F991F42
:10074000C816D9061CF128E02E15E0F4C81AD90AFB
:10075000860184E0159507958A95E1F71016110634
:1007600014F001E010E090916E00892F801B84311D
:1007700008F484E19531E8F090916B009817A0F4AB
:10078000892F12C0E39410E0712C16C08097C81610
:10079000D9066CF484E0871548F480916E0090913E
:1007A0006B00891730F48F5F6ADD03C0739410E02B
:1007B00002C010E0712CE12C3394412C4ACEE19917
:1007C000FECF1FBA8EBBE09A99278DB30895262FCE
:1007D000E199FECF1CBA1FBA8EBB2DBB0FB6F894A1
:0E07E000E29AE19A0FBE01960895F894FFCFB9
:0A07EE00FDFCFEFBEBF0EFEE013224
:00000001FF
